:020000040000FA
:020000000029D5
:080008000B290830A7003A089B
:100010008400380835195420351D562039088400CD
:1000200084173709800527080319FB283518AC20E9
:1000300039088400A20CA10C00083704031C370601
:1000400080002520A70B1828FB283A0884003808D0
:100050008006000080060800A40039088400841788
:10006000370980058413A4080319FB28F030A60083
:1000700023088038A500F030A6030319A600031951
:10008000A4030319FB2844285D2003012118370825
:10009000A31F3708A30803190301A50F51288006E1
:1000A0003828522800003B2880045928FF3A800550
:1000B0005A28FF3A84178005FB28220821040319D7
:1000C000A10A8030211AA2062119A206A118A206AF
:1000D000220DA10DA20DFB2883161C141A088316ED
:1000E0009B0AFB28030183169A001C1555309D00BE
:1000F000AA309D009C149C187B281C119B0AFB288D
:10010000A401A300FF30A307031CA407031CFB28C2
:100110000330A200DF308E208228A201E83EA10039
:10012000A209FC30031C9728A10703189428A107F3
:100130006400A20F942821189D28A11CA12800006A
:10014000A1280800013EA8000A30A300A401DF2076
:10015000A80BA72825080800A301A401B328A20C16
:10016000A10CA30DA40DFF3E0318AF282408A20084
:100170002308A100FB28A201A401A3000130C82884
:10018000A3000630C828A201A401A3000430C82897
:10019000A90024082202031DCF28230821020430CD
:1001A00003180130031902302905031DFF30FB2815
:1001B0000038031DFF300405031DFF30FB28A60196
:1001C000A5011030A700220DA50DA60D2308A5023C
:1001D0002408031C240FA6020318F5282308A507EA
:1001E00024080318240FA6070310A10DA20DA70BC6
:1001F000E3282108FB2883130313831264000800FB
:10020000FF238316900083169F0183120730990005
:10021000D11551157729A000030E8301BB000A08F0
:10022000B6000408B4001010F7308E0703188F0AC8
:10023000D8308F0710140C102108BE002208BF0010
:100240002308C0002408C100D40A64005408643C98
:10025000031D3C296430D402D30AD115640053082D
:100260003C3C031D3629CF0A5115D30164005B3095
:100270004F02031C3C29CF014008A3004108A40001
:100280003E08A1003F08A2003408840036088A0016
:100290003B0E8300A00E200E0900901090110C1050
:1002A00083160C1483120B178B17101408001010F0
:1002B0000800003010180130BE00BF0110108E0180
:1002C0008F0110108E018F011010F7308E07031868
:1002D0008F0AD8308F073E1810143E1C1010D4011E
:1002E000D301CF01C901BC01BD01D11508000C30FB
:1002F00085005921C830802083169B0183126C2011
:10030000D00064005B305002031C8B2983169B01D4
:100310000530831273200301851DFF30C2000301E5
:10032000051DFF30C400420884004408D820C400E2
:10033000C5006400440845040319A2290514831666
:10034000051083120530B9000230B7007830A300E1
:100350000A302C20DB230423323080200301851D4A
:10036000FF30C2000301051DFF30C40042088400B5
:100370004408D820C400C50064004408450403199B
:10038000C6290514831605108312AA29C601C701C0
:100390000301851DFF30C20003010519FF30C400B1
:1003A000420884004408D820C400C5006400440802
:1003B00045040319DC29292A03018519FF30C200ED
:1003C0000301051DFF30C400420884004408D82002
:1003D000C400C5006400440845040319F029292A13
:1003E0000301851DFF30C2000301051DFF30C4005D
:1003F000420884004408D820C400C50064004408B2
:1004000045040319072AD003D3014D21762AC60AD1
:100410000319C70A0A3080204608A1004708A20035
:100420001330A4008830C020031D282A0530B900ED
:100430000230B7007830A3000A302C207830A300B7
:100440000A302C2005108316051064008312252A1B
:10045000C829C601C7015008A1005A30C320C200F4
:100460000301051DFF30C400420884004408D82061
:10047000C400C5006400440845040319412A05303E
:10048000D0075008A1000530BB20C2000301851D24
:10049000FF30C400420884004408D820C400C500CE
:1004A0006400440845040319572A0530D002042388
:1004B0000130A400F430812003018519FF30C2000F
:1004C00003010519FF30C400420884004408D82005
:1004D000C400C5006400440845040319752A831646
:1004E0009B01831250087320C829292AC601C7011D
:1004F000042364008519822A64000519822A323097
:100500008020762A042364004E08003C031D8F2AB5
:1005100064005208003C031D8F2A57219722640073
:100520008519962A64000519962AB12A822A05306F
:10053000B9000230B7006E30A30032302C20C60A5A
:100540000319C70A323080204608A1004708A200DC
:10055000A4016430C020031DAE2AB12A32308020AD
:1005600008005721DB23042364008519BD2A640099
:100570000519BD2A64308020B12AC601C701C829E7
:100580000512831605128312851283168512053013
:100590008312B9001030B7000530BA002030B8001F
:1005A000B5014808A100A201052085168316851211
:1005B000023083128D20051683160512831208005F
:1005C00085168316851283120516831605120230CE
:1005D00083128D200512831605128312851283164D
:1005E0008512831208000512831605120230831249
:1005F0008D20851683168512023083128D200516F4
:1006000083160512831208004F085002CE004E08D0
:10061000A100A2010130A220CA004E08A100A2013F
:100620000030A220CB00E0224130C800F322C022DB
:10063000E022C030C800F322C0224A08093C031C53
:10064000352B2423D500352B03308A004A082B3E56
:1006500003188A0A82003F3406345B344F34663410
:100660006D347D3407347F346F340530B900103079
:10067000B7000530BA002030B800B5015508A10018
:10068000A2010520E022C130C800F322C0224B089D
:10069000093C031C5F2B4E23D6005F2B03308A00DE
:1006A0004B08553E03188A0A82003F3406345B34F7
:1006B0004F3466346D347D3407347F346F34053005
:1006C000B9001030B7000530BA002030B800B501CD
:1006D00080305607C200C301C30D4208A100430881
:1006E000A200052053083B3CD2005208A100A20101
:1006F0000130A220CC005208A100A2010030A220AB
:10070000CD00E022C230C800F322C0224C08093CD0
:10071000031C9E2B8D23D7009E2B03308A004C0890
:10072000943E03188A0A82003F3406345B344F3407
:1007300066346D347D3407347F346F340530B9004E
:100740001030B7000530BA002030B800B5015708A6
:10075000A100A2010520E022C330C800F322C0227C
:100760004D08093C031CC82BB723D800C82B033005
:100770008A004D08BE3E03188A0A82003F340634C0
:100780005B344F3466346D347D3407347F346F34DA
:100790000530B9001030B7000530BA002030B8007D
:1007A000B5015808A100A2010520E0228930C80047
:1007B000F322C022080083169B0183126C20D00014
:1007C0003B30D300CF0185108316851083120800BB
:02400E00D43F9D
:00000001FF
